:020000020000FC
:10000000AEC2ADC2ACC2ABC2AAC2A9C2A8C2A7C28C
:10001000A6C2A5C23FC2A3C2A2C2A1C2A0C29FC221
:100020009EC29DC29CC29BC29AC299C298C2ECC099
:1000300096C295C21F93112791D096D013951C3864
:10004000D8F31F91089596D09DD02D98259A289881
:1000500000000000000000000000000000000000A0
:10006000000000003C9863D26ED2209808950F9350
:1000700008E007B90F9108950F9304E60093050374
:1000800004E10093080304E100930903219A55D089
:1000900028D296D0AFD109D205B7006105BF3B9AEF
:1000A000439A3A9A399A429A419A4DD23C98259865
:1000B000209843D244982D9828980F9108950F9333
:1000C0001F9300E00130B1F015E00091050301300D
:1000D00071F043980A950093050300910703010FFF
:1000E0000B1708F004C00B2F011B009307030091AE
:1000F000070303C000EA009307031F910F910895BF
:100100000F931F9300E0013091F00091050301303F
:1001100059F00A9500930503009106030B17439AC3
:1001200008F002C0B09306030091060303C00AEA78
:10013000009306031F910F910895259A2D983C9ADC
:100140004498E3E000D2F9D1E4E0FDD1F6D11AD031
:1001500019D018D017D016D015D0089529983C98EA
:10016000E6D12D98259A0895299A259844983C9A85
:10017000E4D108953BD02998ECD1DFD1289A209A78
:100180009FD108950F931F932F9300270395112755
:10019000222723952030E8F313951035C8F30F3F3D
:1001A000A8F32F911F910F9108950F931F9315E0BE
:1001B00005E00A95F1F71A95D9F71F910F91089567
:1001C0000F9300917B000F7B00937B0000917A00DE
:1001D0000F7700937A0000B70F600F7B00BF00918C
:1001E0007F00036000937F000F9108950F9300B785
:1001F0000F7700BF78940F9108950F9300B70068B0
:1002000000BFF8940F910895F8DF65D101D01895DB
:100210008F939F93AF93BF93CF93DF93B09184005D
:10022000809185009B2FE330D9F049DFC091030115
:10023000C17051F0A0910703BA1718F0429853D03B
:1002400029C0429A46D026C0A091070394E1A90F85
:10025000BA1718F0429847D01DC0429A3AD01AC037
:100260004FDFC0910101C17051F0A0910603BA1790
:1002700018F0439823D00EC0439A16D00BC0A0911B
:10028000060394E1A90FBA1718F0439817D002C0DB
:10029000439A0AD033D04CD07CD0DF91CF91BF911C
:1002A000AF919F918F9108950F9300910101009359
:1002B0000001000F009301010F9108950F93009129
:1002C000010100930001000F0395009301010F91BC
:1002D00008950F930091030100930201000F009312
:1002E00003010F9108950F93009103010093020100
:1002F000000F0395009303010F9108951F933F93FF
:100300001091010130910301132B41F03091040150
:100310003E7F309304013F911F91089503D03F9198
:100320001F9108954F9341E0409304014F91089528
:100330000F931F930091040112E01023123049F033
:10034000017021F413D01F910F9108951F910F9107
:1003500008950091020110910301101B1AF01F91E2
:100360000F910895CDD01F910F9108951F932F9352
:100370001091000120910101211B1AF02F911F9172
:100380000895109104011260109304012F911F91A0
:1003900008950F931F930091040114E0102314306B
:1003A00049F0017021F413D01F910F9108951F910E
:1003B0000F9108950091000110910101101B1AF096
:1003C0001F910F910895A7D01F910F9108951F932A
:1003D0002F931091020120910301211B1AF02F91FC
:1003E0001F910895109104011460109304012F913E
:1003F0001F9108951F930F9310E00DE41093C50013
:100400000093C40008E10093C10006E00093C2001D
:100410000F911F9108950F93B5DE0091C00005FF65
:10042000FBCF9093C600AEDE0F9108950F9300911D
:1004300080000C70009380000091810008650F77A8
:10044000009381000FEF00938900009388000093D0
:100450008B0000938A000F9108950F930091640020
:10046000077F00936400789400918100097F016008
:10047000009381000F9108950F9300918100087FF0
:100480000093810000916400086000936400F89478
:100490000F9108950F931F9300918600109187008C
:1004A00097E598E51F910F9118950F9300E400933D
:1004B00080000FEF009389000FEF009388000F91E9
:1004C0000F9309E0009381000027009385000093BB
:1004D00084000F9108950F9307E0009381000F911E
:1004E00008954F93559A40604063436044BD44274C
:1004F00040604060416045BD40E048BD4F91089577
:100500004F935F9348B54A3F19F05AEF450F48BDE6
:100510005F914F9108954F935F9348B5403021F01C
:100520005AEF451B48BD00C05F914F910895E330DD
:1005300011F05C9A08955B9A0895E33011F05C988D
:1005400008955B980895E33011F0549A0895539AF2
:100550000895E33011F054980895539808950FEFDB
:100560000DBF04E00EBF88DDE3E064DD6CDDE4E098
:0605700061DD69DDF9CF39
:00000001FF
