:020000020000FC
:1000000005B7006105BF3B9A439A52983C982598E2
:1000100020985A9844982D9828983A9A579A429A34
:100020005F9A1127439814D0332728D0439A4298D7
:1000300016D0332723D0429A1395133098F35F9844
:1000400015D033271BD0209828985F9A1127EACF24
:100050003C9844982D98259A5A9A529A0895449813
:100060003C9A25982D985A98529A089552985A98E1
:100070002898209A089533954F3F18F033952227FA
:10008000442743954F35E8F323952F3FC8F33F3F6F
:04009000A8F3089534
:00000001FF
